:1000000008308A00432D0000FF00030E8301A60084
:100010007F08A5000A08AD008A01A50E0408A70004
:100020002008A8002108A9002208AA002308AB0084
:100030002408AC00831383128C308400001C222817
:100040000C1839288B1E26280B193B2827088400FA
:100050002808A0002908A1002A08A2002B08A30054
:100060002C08A4002D088A00260E8300FF0E7F0EA8
:1000700009008A11972B8A115D2B0A108A100A1128
:10008000820728340C34013406340A108A100A110D
:100090008207C8340F34023405340F340334643417
:1000A0000F340134DC340F3402340A340F34033497
:1000B00005340F34013412340E340334DC340F347D
:1000C0000234FA340A34003405340F340334C834AB
:1000D0000C3403345A340F34003496340A34033465
:1000E000B4340F34013405340134003405340A3497
:1000F00003340A340F34023496340F3400342D3470
:100100000A3401342D3401340034DE340A3400342E
:10011000B4340C340234B4340A34033464340D344B
:1001200003340A108A100A1182070C3400340A10B2
:100130008A100A1182072034523475346E346934BF
:100140006E346734203400340A108A100A11820792
:1001500020344D34523449342B3442344534443401
:100160003A3400340A108A100A11820720344234CB
:10017000453444343A3400340A108A100A11820794
:100180002034543469346D34653420343A342534A1
:1001900064343A342534643420344634723465345B
:1001A00071343A3425347534203400340A108A10FE
:1001B0000A1182072034503475346C34733465343A
:1001C000203443346F3475346E3474343A34253407
:1001D0006C347534203400340A108A100A118207F6
:1001E00020344D34523449343A3400340A108A10E1
:1001F0000A11FD3E03188A0A82000C34203453345D
:1002000054344F3450344534443400340A148A1082
:100210000A118207423449344F3420344D34453476
:100220004434203443344F34523450344F345234F5
:100230004134543449344F344E3400340A148A1053
:100240000A11820720342034203420342034203412
:1002500043344F344334483449344E34203420340A
:100260002034203420342034203400340A148A10FE
:100270000A1182072034203420344D34523449345A
:10028000203444346934673469342D345034723442
:100290006F3420342034203400340A148A100A11B8
:1002A000820720342034203420342034573445341D
:1002B0004C3443344F344D344534203420340034EE
:1002C0000A148A100A118207533461347634653473
:1002D00000340A148A100A1182074E3465347834C7
:1002E000743400340A148A100A11820746347234B6
:1002F00065347134753465346E3463347934203444
:100300004234653464343A342534753400340A1484
:100310008A100A118207543469346D3465342034EC
:100320004234653464342034203420342034203482
:100330003A342534753400340A148A100A118207BD
:1003400049346E34743465346E34633469347434CF
:10035000793420344234653464343A3400340A1435
:100360008A100A1182074634723465347134753448
:1003700065346E346334793420344D345234493426
:100380003A342534753400340A148A100A1182076D
:10039000543469346D34653420344D345234493426
:1003A000203420342034203420343A342534753439
:1003B00000340A148A100A11820749346E347434E6
:1003C00065346E34633469347434793420344D3494
:1003D000523449343A3400340A148A100A1182071C
:1003E0005034723465342034503472346F3467348E
:1003F000723461346D346534643400340A108A1404
:100400000A1182074234653464342B344D3452343B
:10041000493400340A108A140A11820742346534C0
:10042000643420346F346E346C34793400340A1000
:100430008A140A1182074D345234493420346F34FF
:100440006E346C34793400340A108A140A1182072D
:1004500020344134433455345434453420345334F7
:1004600054345234453453345334203444344934AE
:1004700053344F3452342E342E3400340A108A143C
:100480000A1182072034413444344A3455345334F9
:1004900054344D3445344E34543420344434493487
:1004A00053344F34523444344534523420340034BD
:1004B0000A108A140A1182072034413447344F3419
:1004C00052344134503448344F3442344934413446
:1004D000203420342034203420342034203420347C
:1004E000203400340A108A140A118207203442345E
:1004F000493450344F344C34413452342034443431
:10050000493453344F345234443445345234203413
:1005100020342034203400340A108A140A1182074F
:1005200020344434453450345234453453345334F5
:1005300049345634453420344434493453344F34E8
:100540005234443445345234203400340A108A146E
:100550000A118207203445344134543449344E342E
:10056000473420344434493453344F3452344434BF
:100570004534523453342034203420342034003471
:100580000A108A140A11820720344834593450342E
:100590004534523453344F344D344E34493441345D
:1005A00020342034203420342034203420342034AB
:1005B000203400340A108A140A1182072034493486
:1005C0004E3453344F344D344E3449344134203456
:1005D000203420342034203420342034203420347B
:1005E00020342034203400340A108A140A11FB3ECF
:1005F00003188A0A8200203453344F344334493478
:1006000041344C342034503448344F34423449342B
:100610004134203420342034203420342034203419
:1006200000340A148A140A118207203453345434D3
:100630005234453453345334203441344E344434EA
:10064000203441344E3458344934453454345934C8
:100650002034203400340A148A140A11820720340A
:10066000503441344E3449344334203444344934D2
:1006700053344F34523444344534523420342034CB
:1006800020342034203400340A148A140A118207DA
:10069000203445346E34643420344F34663420348E
:1006A00020344C346934733474342034203420348E
:1006B000203420342034203400343C0B882BE60ACC
:1006C0006608FA3C0318732BE2080319732BEA0A35
:1006D0000319EB0A2F102F088316870001308312AD
:1006E00087067108E600E50A6508FA3C0318872BBF
:1006F000E10803197E2BEC0A0319ED0AAF102F084D
:10070000831687000230831287067308E500942B56
:100710002F102F088316870083120710AF102F08A1
:1007200083168700831287100B118A112628DF0B8E
:10073000B52BE908031DA12B83168612831286129E
:10074000A72B83168612203083128606E903013018
:10075000E4000830DF00E00BB52B3B30E000E2089E
:10076000031DE203E108031DE1030C108A11262892
:100770007E30840000080319CA2B0630A100A001B6
:10078000A00BC02BA10BBF2B7B30A000A00BC62B56
:10079000800BBD2B003483162518D22B83128713B0
:1007A000D42B831683128717AF132F088316870065
:1007B000A518DE2B83120713E02B8316831207176D
:1007C0002F132F08831687002519EA2B831287120F
:1007D000EC2B831683128716AF122F08831687001F
:1007E000A519F62B83120712F82B8316831207160E
:1007F0002F122F088316870010308312A000A00B41
:10080000FF2B0000AF112F08831687008312871576
:100810001030A000A00B0A2C0000AF112F08831687
:100820008700831287110034AF112F0883168700C9
:1008300083122F112F088316870086138312071146
:100840002F112F0883168700A6308312A000A00B5B
:10085000272C00008316A208031D322C83120711D7
:10086000342C8316831207152F112F088316870047
:1008700010308312A000A00B3B2C000086138316BF
:10088000861310308312A000A00B442C00008711A7
:10089000AF112F0883168700230EA4000F30A40584
:1008A0002408A5008312CB23831623080F39A40044
:1008B000A5008312CB230034AF132F0883168700C3
:1008C00083122F132F08831687008312AF122F086D
:1008D0008316870083122F122F0883168700831236
:1008E000AF112F088316870083122F112F0883164C
:1008F0008700861383122F112F0883168700831217
:100900000711AF112F0883168700831287110F304C
:10091000FE00B8230130F4007408033C031C9A2C39
:1009200003308316A5008312CB230530FE00B823C5
:10093000F40A8C2C02308316A5008312CB230530D9
:10094000FE00B823F4017408033C031CB42C7408A3
:100950003D20F5008316A201831275088316A300BB
:1009600083121424F40AA32C003483161F149F143A
:100970001F159F1183121F109412AF122F08831698
:10098000870083122F162F08831687008312AF115A
:100990002F088316870001308312940000308316DD
:1009A000940083125C245C24B53090008316010807
:1009B000C039063881000C1483128B1683160C1371
:1009C00002308312DF00E7010130E000C0308B0409
:1009D0008A157B2D7508023C031D312D74080319FF
:1009E000FB2C013A0319082D033A0319152D013A7E
:1009F0000319222D2F2D831605118312051183163D
:100A00008510831285108316051083120510302D72
:100A10008316051183120515831685108312851020
:100A20008316051083120510302D831605118312CD
:100A300005158316851083128514831605108312FD
:100A40000510302D831605118312051583168510A8
:100A5000831285148316051083120514302D302D52
:100A6000902D750B902D74080319402D013A031930
:100A7000502D033A0319642D013A0319782D8D2D59
:100A800083168512831285128316851183128511B0
:100A900083160512831205120030831685008F2DF0
:100AA000831685128312851683168511831285118C
:100AB000831605128312051283160512831205167A
:100AC0000030831685008F2D8316851283128516BC
:100AD000831685118312851183160512831205165C
:100AE00083160512831205161030831685008F2D8C
:100AF0008316851283128516831685118312851538
:100B00008316051283120516831605128312051625
:100B10001030831685008F2D831283168F2D83123C
:100B20000034013083162002FC3E0318AB2D043E36
:100B30008312B62D80308316A100AB2DC0308316F2
:100B4000A100AB2D94308316A100AB2DD4308316B9
:100B5000A100AB2D8316013083127E028316A107FC
:100B6000A2012108A3008312142400340A148A105D
:100B70000A1582079A2D9E2DA22DA62D7D080C3ACE
:100B80000319C92D063A0319D52D023A0319DE2D92
:100B9000E52D8316A2010130A30083121424013035
:100BA000AE000230FE00B823EF2DAE0A0130FE0089
:100BB0002E088316A00083129125EF2D8316A20123
:100BC0001030A30083121424EF2D01308316A200ED
:100BD00083127D088316A30083121424EF2D0034A2
:100BE000FF308316860083120608B0001F30B00560
:100BF0000130B10030081E3A03190E2E033A0319D2
:100C0000112E063A0319142E0C3A03191B2E183A0A
:100C10000319222E103A0319252E272E0130B90070
:100C2000292E0230B900292E8316861283128616C9
:100C30000330B900292E83168612831286160430DB
:100C4000B900292E0530B900292EB101292EB10194
:100C5000292E00346430FE00B8230130FE008316D4
:100C6000A00083129125F40174080621F40AA00063
:100C7000FD00BE2513307402031D342E0130FE002A
:100C800002308316A00083129125F40174081E21FE
:100C9000F40AA000FD00BE2513307402031D462E89
:100CA0000130FE0003308316A00083129125F40169
:100CB00074083621F40AA000FD00BE25123074022B
:100CC000031D582EB1010430F400FA30FE00B823A1
:100CD000F40B652E30080F3C0319732EF0250730F6
:100CE000FE00B8236A2E0C30FD00BE250130FE0048
:100CF00002308316A00083129125F40174084D215F
:100D0000F40AA000FD00BE250E307402031D7E2EE5
:100D10000130FE0003308316A00083129125F401F8
:100D200074083621F40AA000FD00BE2512307402BA
:100D3000031D902E0130B7001430F400FA30FE008D
:100D4000B823F40B9E2E8A158A2D0C30FD00BE258B
:100D50000230FE0001308316A00083129125F401B9
:100D60007408EC21F40AA000FD00BE250D307402C9
:100D7000031DB02E0230FE008316A00083129125C1
:100D8000F4017408FE21F40AA000FD00BE2507301E
:100D90007402031DC12E0230FE0003308316A00032
:100DA00083129125F40174080A22F40AA000FD00C0
:100DB000BE2508307402031DD32E0230FE0004301D
:100DC0008316A00083129125F40174081722F40AF7
:100DD000A000FD00BE2508307402031DE52EBA01F7
:100DE0008316A2010F30A30083121424BB0101302B
:100DF000FE008316A00083129125BA08031D342F2C
:100E0000F025310B332F390B142F3B08023C03180C
:100E1000BB0A01303B07F4000130FE007408831662
:100E2000A000831291252C2F3908023C031D262F88
:100E3000BB08031DBB0301303B07F4000130FE007B
:100E400074088316A000831291252C2F3908043CC6
:100E5000031D2C2F0130BA00310B332FF025073042
:100E6000FE00B8232C2FFD2E8A158D2D3F307407E0
:100E70008400000B452F4C30FD00BE256F30FD0077
:100E8000BE257730FD00BE25742F3F3074078400E7
:100E90000008023C031D562F4D30FD00BE25653075
:100EA000FD00BE256430FD00BE25742F3F30740761
:100EB00084000008033C031D672F4830FD00BE2559
:100EC0006930FD00BE256730FD00BE25742F3F3020
:100ED0007407840080014F30FD00BE256630FD00A0
:100EE000BE256630FD00BE2500347D08A1017C02D0
:100EF00003187D2F7C08A000892FA0010830FE0078
:100F0000FC0DA00D7D0820020318A000A10DFE0B12
:100F1000802F003421087708FC006430FD0075271D
:100F20002008F70021083030031D9D2FF81CA42F46
:100F3000F819A42F781A2030A02FF81178127814FD
:100F4000A1072108FD00BE257708FC000A30FD003E
:100F500075272008F70021083030031DB52FF81938
:100F6000B92F781CB92F781A2030A1072108FD006D
:100F7000BE253030F7077708FD00BE2500343E0857
:100F8000033C031CCE2F01303E07F5007408FE0021
:100F900075088316A00083129125D82F03303E02D6
:100FA000F5007408FE0075088316A00083129125D1
:100FB00000340034A001A101740803107518A007C3
:100FC000A00CA10CF518A007A00CA10C7519A00786
:100FD000A00CA10CF519A007A00CA10C751AA00774
:100FE000A00CA10CF51AA007A00CA10C751BA00762
:0E0FF000A00CA10CF51BA007A00CA10C003456
:101000000C30FD008A11BE258A150230FE00043026
:101010008316A0008A11831291258A153B08023C91
:10102000031916283E08033C03182628F401740807
:101030008A1160218A15F40AA000FD008A11BE25DC
:101040008A1504307402031D17283528F40174082A
:101050008A1169218A15F40AA000FD008A11BE25B3
:101060008A1504307402031D27283E08033C031C24
:10107000A9281030FE0003308316A0008A118312C5
:1010800091258A150230F4008A1136278A1502301C
:10109000FE0001308316A0008A11831291258A1563
:1010A000F40174088A1172218A15F40AA000FD0067
:1010B0008A11BE258A150E307402031D51283F087F
:1010C000F7001B30F8008A118A278A150230FE00CB
:1010D0008316A0008A11831291258A15F4017408E1
:1010E0008A1187218A15F40AA000FD008A11BE2505
:1010F0008A150E307402031D6F284008F7001B305C
:10110000F8008A118A278A150230FE000330831600
:10111000A0008A11831291258A15F40174088A119E
:101120009C218A15F40AA000FD008A11BE258A15AB
:101130000E307402031D8E2801303E07F40001308A
:10114000FE0074088316A0008A11831291258A1567
:1011500018291030FE0003308316A0008A11831274
:1011600091258A150630F4008A1136278A15023037
:10117000FE0001308316A0008A11831291258A1582
:10118000F40174088A11AF218A15F40AA000FD0049
:101190008A11BE258A150E307402031DC12843082A
:1011A000F7001B30F8008A118A278A150230FE00EA
:1011B0008316A0008A11831291258A15F401740800
:1011C0008A11C4218A15F40AA000FD008A11BE25E7
:1011D0008A150E307402031DDF284408F7001B3007
:1011E000F8008A118A278A150230FE000330831620
:1011F000A0008A11831291258A15F40174088A11BE
:10120000D9218A15F40AA000FD008A11BE258A158D
:101210000E307402031DFE2803303E02F40001303C
:10122000FE0074088316A0008A11831291258A1586
:1012300000343B0B2029EF010330F000BE013329BD
:101240003B08023C031D2929EF010330F000BE01D9
:1012500033293B08033C031D33290430EF000730DA
:10126000F0000430BE0000208316A2010F30A3005E
:101270008A11831214248A15BC01BD01BC08031D08
:101280004C2A8A11F0258A156430D700310B4B2A7D
:101290003908053C031D4F290130D8004C2ABD08F0
:1012A000031D9529390B5E2970083E02031CBE0AF6
:1012B0000130F4008A11BF278A156B293908023CD6
:1012C000031D6B293E086F02031CBE030130F400AE
:1012D0008A11BF278A153908043C031D9429700818
:1012E0003E02031D85293B0B7B290430EF000730AC
:1012F000F0000430BE008A11D9278A150020013081
:10130000F4008A11BF278A1594291030F4008A113D
:10131000BF278A158316A2010F30A3008A118312FA
:1013200014248A150130BD00032A3908043C031D2A
:10133000A829BD010130F4008A11BF278A15831640
:10134000A2010F30A3008A11831214248A15032AE4
:101350003908023C031DBD293F303E0784000008C8
:10136000F4004F303E078400000874020318BC29C3
:101370003F303E078400800AD129390BD1293F3004
:101380003E0784000008F40047303E078400000850
:1013900074020319D129031CD1293F303E07840070
:1013A00080033E08023C0319D9293E08063C031D70
:1013B000E9291030F4008A11BF278A153E08F4008D
:1013C0008A1136278A151030F4008A11BF278A1532
:1013D000032A1030F4008A11BF278A153F303E07D8
:1013E00084000008F400F7001B30F8008A118A27F7
:1013F0008A152030FD008A11BE258A151030F400B0
:101400008A11BF278A153908033C031D352A440871
:10141000E2004008E1004108F4000130F5008A11C3
:10142000EA248A154508F4000230F5008A11EA24FE
:101430008A153B30E0004308F1003F08F3008A11B1
:10144000D9278A15BD010130BA00BC00D801EB01D3
:10145000EA01ED01EC010930D9008316A2010C303C
:10146000A3008A11831214248A15310B4B2A8A1186
:10147000F0258A15D70B452A0130D7006430FE00CD
:101480008A11B8238A1546294A2A0730FE008A1194
:10149000B8238A15352A3E298A15932D7508003AF6
:1014A0000319712A013A0319812A033A0319912A6F
:1014B000013A0319A12A073A0319B12A013A03197B
:1014C000C12A033A0319D12A013A0319E12A0F3A32
:1014D0000319F12A013A0319012B033A0319112BBD
:1014E000212BF60176088A1124228A15F60AA0001B
:1014F000FD008A11BE258A1515307602031D722A59
:10150000312BF60176088A113E228A15F60AA000D0
:10151000FD008A11BE258A1515307602031D822A28
:10152000312BF60176088A1158228A15F60AA00096
:10153000FD008A11BE258A1515307602031D922AF8
:10154000312BF60176088A1172228A15F60AA0005C
:10155000FD008A11BE258A1515307602031DA22AC8
:10156000312BF60176088A118C228A15F60AA00022
:10157000FD008A11BE258A1515307602031DB22A98
:10158000312BF60176088A11A6228A15F60AA000E8
:10159000FD008A11BE258A1515307602031DC22A68
:1015A000312BF60176088A11C0228A15F60AA000AE
:1015B000FD008A11BE258A1515307602031DD22A38
:1015C000312BF60176088A11DA228A15F60AA00074
:1015D000FD008A11BE258A1515307602031DE22A08
:1015E000312BF60176088A11F4228A15F60AA0003A
:1015F000FD008A11BE258A1515307602031DF22AD8
:10160000312BF60176088A1111238A15F60AA000FB
:10161000FD008A11BE258A1515307602031D022BA6
:10162000312BF60176088A112B238A15F60AA000C1
:10163000FD008A11BE258A1514307602031D122B77
:10164000312BF60176088A1144238A15F60AA00088
:10165000FD008A11BE258A1514307602031D222B47
:10166000312B0034F40174088A1191208A15003856
:101670000319402BF40AFD008A11BE258A15332B6D
:101680000130FE008316A0008A11831291258A156D
:10169000F5014E220130FE0002308316A0008A11AF
:1016A000831291258A150130F5004E220130FE008B
:1016B00003308316A0008A11831291258A15023007
:1016C000F5004E220130FE0004308316A0008A117E
:1016D000831291258A150330F5004E22E70101306F
:1016E000FE0002308316A0008A11831291258A150C
:1016F000E801E808031D6C2C8A11F0258A15310BCE
:101700006B2C390B882B6708093C0318E70A8F2BD1
:101710003908023C031D8F2BE708031DE703390836
:10172000033C031D142CF40174088A1191208A15BE
:1017300000380319A12BF40AFD008A11BE258A1571
:10174000942B6708F4000630F5008A11DA278A1511
:10175000013021078A1145208A15A100E20067089F
:10176000F4000630F5008A11DA278A1504302107C3
:101770008A1145208A15A100E1006708F4000630AF
:10178000F5008A11DA278A1521088A1145208A1561
:10179000A100F3006708F4000630F5008A11DA278B
:1017A0008A15033021078A1145208A15A100F1000E
:1017B0006708F4000630F5008A11DA278A1502302E
:1017C00021078A1145208A15A100DC006708F40072
:1017D0000630F5008A11DA278A15053021078A11AB
:1017E00045208A15A100DD005C08F4000130F500F9
:1017F0008A11EA248A155D08F4000230F5008A1186
:10180000EA248A150130BC00DE00E8008316A2013C
:101810000C30A3008A11831214248A150930D900D0
:10182000EB01EA01ED01EC01F40174088A11912049
:101830008A1500380319222CF40AFD008A11BE25EE
:101840008A15152C0130FE008316A0008A11831220
:1018500091258A1501306702F400F5004E2201300F
:10186000FE0002308316A0008A11831291258A158A
:101870006708F5004E220130FE0003308316A000F9
:101880008A11831291258A1501306707F400F5004B
:101890004E220130FE0004308316A0008A1183120C
:1018A00091258A1502306707F400F5004E220130B9
:1018B000FE0002308316A0008A11831291258A153A
:1018C000310B6B2C8A11F0258A150730FE008A1126
:1018D000B8238A15602C792B8A15982D2030771E15
:1018E0003030F8007608A000F61F7D2CA009A00A71
:1018F0002008F6002D30F800F7177608FC00643059
:10190000FD008A1175278A152008F600303021075E
:10191000F9007608FC000A30FD008A1175278A1547
:1019200030302007FB0030302107FA007808A00093
:10193000F71D9C2CF71F7711771AA92CF71FC42CC1
:101940007719C42C2008F900F718C42C2008FA00D5
:10195000C42C30307902031DC42C2008F90020303B
:10196000F800F71DB72C7711F714F71FF710303078
:101970007A02031DC42C2008FA002030F900F71D5C
:10198000B72CF710F71F7710771DCB2C7808FD00C8
:101990008A11BE258A15F71CD22C7908FD008A1100
:1019A000BE258A15771CD92C7A08FD008A11BE2520
:1019B0008A157B08FD008A11BE258A1500340408AB
:1019C000FC00760EF038F800F807E23EF900323EEF
:1019D000FB0076080F39F907F907FB07E93EFA0023
:1019E000FA07FA07750E0F39FA07FB07FA0DFB0D18
:1019F000FB09FB0D75080F39FB07F80D0730F700E1
:101A00000A30FB07FA03031C012DFA07F903031C34
:101A1000052DF907F803031C092DF807F703031C2C
:101A20000D2D7730840007307C057C1384077B30D4
:101A3000040203197C170008A000031D272D7C1B3E
:101A4000272D7C1A352DFC19272D20302A2DFC1529
:101A50007C123030A007F6010408F5002008FD00D4
:101A60008A11BE258A1575088400840A7C1F172DEB
:101A700000340130BF00C000C101C201C300C40076
:101A8000C501C601003484011F30830583161F146D
:101A90009F141F159F1107309C00FF308312AF0069
:101AA000BC01BD01BE010130BF00C000C101C201C7
:101AB000C300C400C501C601C700C800C901CA01EE
:101AC000CB00CC00CD01CE01FA30CF001E30D000CB
:101AD0000330D1000130D200FA30D3001E30D400E0
:101AE0000330D5000130D6005030DA00DC01DD01D2
:101AF000E9018A11B52C8A15F4010230F5008A112A
:101B0000EA248A15F4010130F5008A11EA248A15C5
:101B10008A112A2E8A158A11A52E8A15BB08031947
:101B2000972D00201929580B962D8B2D982D322B8F
:101B30003C0B722F640B292FE4015908083C031C4D
:101B4000B32DD90A08305907F400FE00023083167D
:101B5000A0008A11831291258A153E30FD008A115A
:101B6000BE258A15DA2DF40174088A1191208A1590
:101B700000380319C12DF40AFD008A11BE258A150B
:101B8000B42D0130FE0002308316A0008A118312AA
:101B900091258A15F40174088A1197208A15F40A90
:101BA000A000FD008A11BE258A1508307402031DAD
:101BB000CB2DD901BB08031DF22D0130FE00831689
:101BC000A0008A11831291258A156708F5004E221C
:101BD000DC080319ED2D342EF12DDD080319F12D4C
:101BE000BF2E292F3B0B142E0130FE008316A000C0
:101BF0008A11831291258A15F40174088A11A42090
:101C00008A15F40AA000FD008A11BE258A15093044
:101C10007402031DFD2D720B102EF201202E132EC7
:101C20000130F200AB2E292F3B08023C031D9F2EF2
:101C30000130FE008316A0008A11831291258A15B7
:101C4000F40174088A11B2208A15F40AA000FD007C
:101C50008A11BE258A1505307402031D212E02301B
:101C6000F4008A1136278A150130FE0003308316EE
:101C7000A0008A11831291258A1501306102F400B7
:101C8000F50175088A11BC208A15F50AA000FD002F
:101C90008A11BE258A1507307502031D412E74086E
:101CA000F6001F30F7006E243A30FD008A11BE2581
:101CB0008A156008F6001F30F7006E240C30F6001D
:101CC00076088A11BC208A15F60AA000FD008A1148
:101CD000BE258A1512307602031D602E7308F700A8
:101CE0001B30F8008A118A278A152030FD008A11DE
:101CF000BE258A150130FE0004308316A0008A112B
:101D0000831291258A15F40174088A11D6208A1548
:101D1000F40AA000FD008A11BE258A150D30740258
:101D2000031D842E103084006D08F6006C08F50049
:101D3000DF242030FD008A11BE258A15292F3B089B
:101D4000033C031D292F0130FE008316A0008A11D9
:101D5000831291258A15F40174088A11EC208A15E2
:101D6000F40AA000FD008A11BE258A150530740210
:101D7000031DAC2E0630F4008A1136278A15013077
:101D8000FE0003308316A0008A11831291258A1564
:101D900001306202F400F50175088A11BC208A1531
:101DA000F50AA000FD008A11BE258A1507307502CC
:101DB000031DCC2E7408F6001F30F7006E243A3055
:101DC000FD008A11BE258A156008F6001F30F70055
:101DD0006E240C30F60076088A11BC208A15F60AAB
:101DE000A000FD008A11BE258A1512307602031D5F
:101DF000EB2E7108F7001B30F8008A118A278A152C
:101E00002030FD008A11BE258A150130FE00043005
:101E10008316A0008A11831291258A15F401740893
:101E20008A11D6208A15F40AA000FD008A11BE2569
:101E30008A150D307402031D0F2F103084006B08BB
:101E4000F6006A08F500DF242030FD008A11BE2567
:101E50008A15E208031D382F2F102F0883168700DC
:101E600083120710F4010230F5008A11EA248A1562
:101E7000E108031D472FAF102F0883168700831238
:101E80008710F4010130F5008A11EA248A15E1086F
:101E9000031D722FE208031D722F6430E900BC019C
:101EA0000130FE008316A0008A11831291258A1545
:101EB000F40174088A11F6208A15F40AA000FD00C6
:101EC0008A11BE258A1508307402031D592F392541
:101ED0002030F400FA30FE008A11B8238A15F40B82
:101EE0006A2F8B2D8A11F0258A15B20A310BAF2F7C
:101EF0003908033C031DAF2F831686128312861602
:101F0000BC010130FE008316A0008A1183129125C6
:101F10008A15F4010230F5008A11EA248A15F401C9
:101F20000130F5008A11EA248A15F40174088A1137
:101F3000F6208A15F40AA000FD008A11BE258A1534
:101F400008307402031D962F39250430F400FA304E
:101F5000FE008A11B8238A15F40BA72F8B2D982D1C
:021F600063001C
:02400E00323F3F
:00000001FF
;PIC16F873A
;CRC=81C8  CREATED="14-Jun-15 15:18"
