:1000000005308A004E2D0000FF00030E8301A10081
:100010007F08A0000A08A7008A01A00E0408A20019
:100020007708A3007808A4007908A5007A08A6003C
:10003000831383128B1E1E280B191F290B1E2228C7
:100040008B1839288C308400001C28280C186F2845
:10005000220884002308F7002408F8002508F90086
:100060002608FA0027088A00210E8300FF0E7F0E63
:10007000090064000B128B12B301853090008E01D1
:10008000FC308F00B7308E0083160C148312C2012F
:100090002E14B001B101B201B401AF01B6010030BC
:1000A000F8008B108A1128286400AE173D0B5D28DC
:1000B0003108C3003008C4006628BD08031D662847
:1000C0003208C3003108C4003008C50010108B107E
:1000D0000B1683160C1083128B16B6010800C8018C
:1000E0001430C7002E122E1CB0288316061483125B
:1000F000AE100618AE142E11AE182E152E102E1D91
:1001000097282E1D96288316061483122E11061882
:100110002E15C708031D8F28C808031994284708FF
:100120000319C803C70395282E118128A8282E1962
:10013000A8288316061483122E1106182E154708B8
:100140000319C803C70BA728C80803192E15972839
:10015000853090008E01FF308F0069308E001A29A3
:10016000831606148312AE110618AE152E148530B0
:1001700090008E01FE308F00A1308E0064002E12A0
:10018000AF0A4610C6102F081A3C031C1529AE18DA
:10019000D028AE1DD0280314B00DB10DB20D142916
:1001A000AE1CD928AE19D9280310B00DB10DB20D6F
:1001B0001429AE1C0F29AE1D0F292F08113A03195F
:1001C000EB28033A0319ED280B3A0319FB28033AED
:1001D0000319FD280A29C20A0E29C20A4208023C54
:1001E000031DF9280130BD00542046144611C610E5
:1001F000FA282E160E29C20A0E29C20A4208023C0B
:10020000031D0829BD01542046104615C6100929B2
:100210002E160E292E1610100B16B60114292E16A6
:10022000B60110100B168B161A29AE16B601101057
:100230000B168B160030F8000C108A112828640069
:10024000B80B28290430B8003608183C0318B60A41
:100250000130F8000B118A112828083083169B0002
:100260009C131C141A088312DF00073083169B00AE
:100270009C131C141A088312E0005F08CA0060086F
:10028000C9000230F700F70B432946290000831606
:100290009B019C131C141A088312D9000230F7002A
:1002A000F70B502953290000013083169B009C1343
:1002B0001C141A088312CF000230F700F70B5E29D6
:1002C00061290000023083169B009C131C141A083D
:1002D0008312CD000230F700F70B6C296F29000064
:1002E000033083169B009C131C141A088312CE0043
:1002F0000230F700F70B7A297D29000004308316BD
:100300009B009C131C141A088312D0000230F700C3
:10031000F70B88298B290000053083169B009C135E
:100320001C141A088312D1000230F700F70B96292B
:1003300099290000063083169B009C131C141A0890
:100340008312DD000230F700F70BA429A729000073
:10035000193083169B009C131C141A088312D200B8
:100360000230F700F70BB229B52900001A308316C6
:100370009B009C131C141A088312D3000230F70050
:10038000F70BC029C32900001B3083169B009C1368
:100390001C141A088312D4000230F700F70BCE2980
:1003A000D12900001C3083169B009C131C141A08D2
:1003B0008312D5000230F700F70BDC29DF2900009B
:1003C0001D3083169B009C131C141A088312D60040
:1003D0000230F700F70BEA29ED2900001E308316E2
:1003E0009B009C131C141A088312D7000230F700DC
:1003F000F70BF829FB2900001F3083169B009C1384
:100400001C141A088312D8000230F700F70B062AD2
:10041000092A0000203083169B009C131C141A0824
:100420008312C10008000030F8000438920019302F
:10043000831692000108C73908388100853083127D
:10044000900010108316011383120B168B16C03008
:100450008B041730B600AE1395011708CF399700FB
:10046000F0309705692D613084008313000803196B
:10047000472A0130F800F701F70B3C2AF80B3B2A1A
:100480004A30F700F70B422A452A800B392A080028
:100490005F080A3C031C4E2ADE01942A5F080A3CCE
:1004A0000318592A5F08143C031C592A0130DE0046
:1004B000942A5F08143C0318642A5F081E3C031C3E
:1004C000642A0230DE00942A5F081E3C03186F2A5B
:1004D0005F08323C031C6F2A0330DE00942A5F0859
:1004E000323C03187A2A5F08463C031C7A2A0430FF
:1004F000DE00942A5F08463C0318852A5F085A3CB0
:10050000031C852A0530DE00942A5F085A3C031834
:10051000902A5F08643C031C902A0630DE00942A6F
:100520005F08643C031CDE01DE08031D9C2A831661
:10053000861283128612BC2A8316861283128616AE
:100540000C30E000FA30E1003322E00BA22AB701C0
:1005500037085E02031CBC2A831686128312861299
:10056000FA30E10033228316861283128616FA309F
:10057000E1003322B70AA82A08002E1383160614B6
:100580008312061CC72A0511831605118312193020
:10059000F700F70BC92ACC2A000083160614831231
:1005A000061CD82A05158316051183122E170D2B4C
:1005B0006030F700F70BDA2A000083160614831266
:1005C0000618E72A051583160511EE2A831205156C
:1005D0008316051183122E170D2B83161930F70081
:1005E000F70BF02AF32A0000061483120618FE2ADD
:1005F00005158316051183122E170D2B6030F70099
:10060000F70B002B000083160614831206180D2B1F
:1006100005158316051183122E170800051583167C
:100620000511640005308312E100A330E2001230AE
:10063000E202031C2A2B623084008313FC30800505
:100640000310800C800C000803192A2B282B0000B3
:10065000800B272BE10B152B0800600DB900B90D9D
:10066000B90DF830B9050C305F073602031C332B87
:100670000B138B138B1B392BBD22B70139083702A3
:1006800003188B2B0314BA0DBB0DBC0D031C4A2B96
:10069000BD22872B2E130515831605111930F7007F
:1006A000F70B502B532B00000614831206185A2BFD
:1006B0002E17872B6030F700F70B5C2B000083169A
:1006C00006148312061C692B051183160511702B65
:1006D000831205158316051183122E17872B831697
:1006E0001930F700F70B722B752B000006148312DC
:1006F000061C7C2B2E17872B6030F700F70B7E2B08
:100700000000831606148312061C872B2E172E1B3F
:100710008F2BB70A3E2B0E230E230E230E23051517
:10072000831605118312B6018B10C0308B048B1613
:100730000800BF014408643A0319BA2B8E3A031922
:10074000CE2B0D3A0319E92BEE3A0319112C2A3A54
:100750000319D42C073A0319D92C013A0319002D97
:10076000033A0319092D013A0319182D163A0319F2
:10077000262D2E2D45084E020318C12B4E08B5001C
:10078000CA2B4D0845020318C82B4D08B500CA2BCB
:100790004508B5003508DF004822302D4508103CDB
:1007A000031CE52B4508BE0009303E07DF005F084B
:1007B00083169B009C131C141A088312B50035087D
:1007C0004D02031CE52B0530B5003508DF0048223B
:1007D000302D4508103C031C102C0B138B138B1B66
:1007E000EE2B09304507DF000B08F7008B135F087D
:1007F00083169B008312350883169A009C131C15E0
:1008000055309D00AA309D009C149C18052C1C118D
:10081000770883128B040C2C0D2C0000C0308B0445
:10082000302D083083169B009C131C141A08831269
:10083000DF00073083169B009C131C141A088312D8
:10084000E0005F08CA006008C90045080F39CB0006
:10085000450810390319302C103A0319842CD32C75
:10086000FA010130F9004B08F70003193C2C031082
:10087000F90DFA0DF70B372C7908FF3AF700FF3026
:10088000FA067708C9057A08CA054908DF000B0887
:10089000F7008B13073083169B00831249088316D9
:1008A0009A009C131C1555309D00AA309D009C1485
:1008B0009C18582C1C11770883128B040230F70007
:1008C000F70B602C632C00004A08DF000B08F700D0
:1008D0008B13083083169B0083124A0883169A00F4
:1008E0009C131C1555309D00AA309D009C149C182B
:1008F000772C1C11770883128B040230F700F70B5A
:100900007F2C822C0000D32CFA010130F9004B0817
:10091000F7000319902C0310F90DFA0DF70B8B2C2F
:100920007908C9047A08CA044908DF000B08F700EF
:100930008B13073083169B008312490883169A0095
:100940009C131C1555309D00AA309D009C149C18CA
:10095000A72C1C11770883128B040230F700F70BC9
:10096000AF2CB22C00004A08DF000B08F7008B13F5
:10097000083083169B0083124A0883169A009C1342
:100980001C1555309D00AA309D009C149C18C62C47
:100990001C11770883128B040230F700F70BCE2C62
:1009A000D12C0000D32C302D4508DA000130DC00BA
:1009B000302D4508DB005C0BFE2C5B08203C031C43
:1009C000FE2CDC010B08F7008B135B0883169B00E1
:1009D00083125A0883169A009C131C1555309D00EB
:1009E000AA309D009C149C18F32C1C1177088312CC
:1009F0008B040630F700F70BFB2C00002D21302D67
:100A00005D08BC005A08BB000230DF00E0002D2367
:100A1000302D4508DB005B08203C031C172D5B08CC
:100A200083169B009C131C141A088312DA00302DC5
:100A30005D08BC0083169B019C131C141A088312CA
:100A4000BB000230DF00E0002D23302D5D08BC002C
:100A50000230BB00DF00E0002D23302D0130BF004D
:100A6000BF08031D492D0B08F7008B1383169B014C
:100A70008312350883169A009C131C1555309D006F
:100A8000AA309D009C149C18432D1C1177088312DA
:100A90008B040230E1003322C001080003081F3933
:100AA000830083168E1504308312B800DB30C1003A
:100AB0000130C8002C30C700CC01CD016430CE001D
:100AC0008030DD0007309F008313A801A9012D218C
:100AD000132ACD016430CE00083083169B009C138E
:100AE0001C141A088312DF00073083169B009C1326
:100AF0001C141A088312E0005F08CA006008C900CD
:100B000083169B019C131C141A088312D9005908E0
:100B1000023C031C8D2DB5018F2D5908B5003508F9
:100B20000A3C031C962D3508DF0048226400AE1FE6
:100B3000C52D430F9D2D9923C42D5D084302031D30
:100B4000A32D9923C42D41084302031DA92D9923E8
:100B5000C42D4308BF3C0318C42D4308D03C031CDC
:100B6000C42D43080F39CB004A08FA004908F900A0
:100B70004B08F7000319C12D0310FA0CF90CF70B01
:100B8000BC2D790879189923AE132E1FD12D4C084E
:100B90003F3C031CD12DCC0A0230DF00E0002D23A6
:080BA000D22DCC01962D63005B
:104200006400320000006400050006008000010028
:08421000000006000700080091
:02424000DB00A1
:02400E00381F59
:00000001FF
;PIC16F628A
;CRC=5D9E  CREATED="12-May-21 19:01"
